S3150000000050040020D9000000E7000000E9000000CD
S3150000001000000000000000000000000000000000DA
S31500000020000000000000000000000000EB000000DF
S315000000300000000000000000ED0000004D1500006B
S31500000040F1000000F1000000F1000000F1000000E6
S31500000050F1000000F1000000F1000000F1000000D6
S31500000060F1000000F1000000F1000000F1000000C6
S31500000070F1000000F1000000F1000000F1000000B6
S31500000080F1000000F1000000F1000000F1000000A6
S31500000090F1000000F1000000F1000000F100000096
S315000000A0F1000000F1000000F1000000B1150000B1
S315000000B0F1000000F1000000F1000000F100000076
S315000000C00448854600F0D2FC00480047393A000053
S315000000D0C046C046500400200649086885460648C2
S315000000E0804706480047FEE7FEE7FEE7FEE7FEE735
S315000000F0FEE700000000000075150000C1000000CA
S3150000010030B50B46014600202022012409E00D46A9
S31500000110D5409D4205D31D469540491B2546954031
S3150000012040191546521E002DF1DC30BDF8B50024ED
S315000001302546002904DA0E46012400214042B14139
S31500000140002B04DA1E46002352420125B34100F07B
S3150000015053FB8C4617461E46AC4203D00025404250
S315000001608D41AC46002C02D0002657429E41614686
S315000001703A46334601B0F0BD03460B439B0703D016
S3150000018009E008C9121F08C0042AFAD203E00B7856
S315000001900370401C491C521EF9D27047D2B201E0CE
S315000001A00270401C491EFBD270470022F6E710B5CC
S315000001B013460A4604461946FFF7F0FF204610BDCF
S315000001C0F8B502464A40D40F42004B0052085B087D
S315000001D09A4202D20246084611464A0023D0C30D6F
S315000001E04A00DDB2120EAD1A202D35DA490201267B
S315000001F0490AF6058A19002C00D0524220214F1BCD
S315000002001146B9402A411018C20D9A4221D0002C3D
S3150000021017D0012D08DCDA05801AD20F8019D20713
S31500000220DBB200F055FBF8BDDA05801A0123400069
S315000002301B06C01880185A428018CA0F104349007E
S3150000024007E04908C2071143DA05801A80194008F9
S31500000250801800F035FBF8BD61000122511A001B21
S31500000260F7E70122D2075140AAE70122D207504000
S31500000270A6E7024670B54A40D30FDB0740002DD0F3
S315000002804A002AD0010E140E000212020919400A71
S31500000290520A8418E50104465443000A120A2E0441
S315000002A05043A4194219200CC543AA18120C012563
S315000002B0AD03521C521912047F39240400D0521C7B
S315000002C0104301D44000491EC2B20C06C0092018D2
S315000002D0401C4008802A02D003E0002070BD400880
S315000002E04000002900DA0020184370BD70B50246B0
S315000002F04A40D50F40004A00ED0740085208002842
S3150000030014D0002A12D0C40DD30D41020120C0051D
S315000003105202490A520AE41A091812187D34914207
S3150000032001D3641C00E04900002C01DA002070BDF6
S315000003300023914201D3891A03434008490000284B
S31500000340F7D100290AD0914202D10121C90705E05F
S31500000350914201D2012101E00121C943E005C01803
S31500000360401900F0ADFA70BDF0B507460846584092
S3150000037087B0C00F049048000E465900400849084F
S31500000380BC1A884105D2384631461E4617460B46EA
S3150000039002465800400810434DD0300D03904005EA
S315000003A05900400D490D0590401A0290402873DA15
S315000003B018030121000B09050843019004980092D7
S315000003C0002806D01146019A49420020904100912A
S315000003D00190029840210A1A0199009800F03CFA0F
S315000003E005460C466B4607CB00F057FAC01971411B
S315000003F0039A0E0D0023D71756401A467A40164325
S3150000040044D0049A002A2DD0029A012A039A15DCB8
S315000004101205C01A914101263605001C7141D20F02
S31500000420059ED2070093019202962A46234600F0C3
S3150000043095FA07B0F0BD38463146FAE71605234A65
S315000004400F46B218C01AB74101210905001C4F41D9
S3150000045000187F41114618187941E20F10436D19B3
S31500000460644113E0E2076D0815436408C2071443AC
S31500000470039A01261205C01A91413605001C7141E6
S31500000480CE07400830434908C01851412A46234642
S3150000049000F057FACDE7FFE7049801224000C117A4
S315000004A0121A00238B4104983146C417381AA14109
S315000004B0EEE730B40124E407634030BC54E730B4BF
S315000004C00124E407614030BC4EE700000000E0FF75
S315000004D0F0B51FB488B00B990998002448400999D3
S315000004E0C00F490049080991C0070B9900904900BF
S315000004F049080B9109990898A64608431CD00B9900
S315000005000A98084318D0099801244000420D480073
S31500000510410D099824050003000B204309900B9810
S315000005200003000B20430B9050181C494018002272
S3150000053001901446104605E0002001460DB0F0BDBE
S31500000540032801DA034600E003239C46C11A0AAEDB
S315000005500AE05F0008ADED5B4F00F75B7D430027C7
S31500000560AA187C41491C5B1E6145F2DD410004ABC3
S315000005705A522104120C0A43240C401C0828DFDBC3
S31500000580019802900099704601910090059B049A8B
S315000005900799069800F0E2F9D0E700000DFCFFFF8E
S315000005A0F0B50C465C4085B0E40FE40703944C00BC
S315000005B000266408590094464908024602962243DA
S315000005C021D062460A431ED06200570D4A000E0330
S315000005D02303550D012402462C492405781B1B0BC9
S315000005E0360B401823432643614600901C46501A9A
S315000005F0B44103D30098401C009002E09218009882
S315000006005B41002803DA0020014605B0F0BD00205A
S31500000610012109050746864611E064461D46141B5E
S31500000620B54106D36546521BB341744607430C4396
S31500000630A646CD0740084908284392185B4105465F
S315000006400D43EAD11046184313D060461946504070
S315000006507140084306D06046101AB34106D2012203
S31500000660002306E000220123DB0702E00122D24339
S315000006705310009874460105381C6141029C039D85
S315000006800019694100F05DF9BFE70000FD030000B5
S3150000069010B500229623114600F01AF910BD00008D
S315000006A00EB5C217C10F5040CA0740180021054BAE
S315000006B00293019200910A460B4600F04FF903B0EF
S315000006C000BD0000330400000EB50549029100216B
S315000006D000910A460B46019100F040F903B000BDB7
S315000006E033040000410040020122400AD205090EEF
S315000006F080187F2901DA00207047962903DC9622AC
S31500000700511AC84070479639884070474A00090315
S315000007100123090B1B051943094B10B5520D9A42CB
S3150000072001DA002010BD064B34339A4203DC9A1AD4
S3150000073000F0A2F810BD03495118884010BD000012
S31500000740FF030000CDFBFFFFC20FD20740004008A9
S315000007500BD0C10D0723DB01C91840020905400A69
S315000007601143C208400711437047002001467047F5
S3150000077010B5002904DB0124E40740428C412146E0
S31500000780002B04DB1C460123DB075242A3418B42AC
S3150000079000D1824210BD000010B5002904DB0124FF
S315000007A0E40740428C412146002B04DB1C46012312
S315000007B0DB075242A341994200D1904210BD00008E
S315000007C0CB0FDB07490010B5490802460A4307D09C
S315000007D00A0D07240903E401090B121B002A01DC98
S315000007E0002010BDC900440F0C43C100E018D2051B
S315000007F0801800F065F810BDF0B51FB4064600205D
S3150000080082B005464024019100901BE001992246E2
S315000008100F46304600F030F8049A059B801A99413D
S3150000082010D310461946224600F016F8361A8F41A4
S315000008300197224601200021009F00F00DF838188C
S315000008404D4100902046641E0028DFDC019B009885
S315000008502946324607B0F0BD10B5202A04DB014612
S31500000860203A9140002010BD914020239C1A034657
S31500000870E3401943904010BD10B5202A04DB08461A
S31500000880203AD040002110BD0B46D340D040202452
S31500000890A21A91400843194610BD10B5202A06DB5E
S315000008A0CB170846203A1041C1170B4306E00B460A
S315000008B01341D0402024A21A91400843194610BD86
S315000008C0002904DA401C490001D140084000704765
S315000008D070B40024050C05D11024000402D10029AF
S315000008E021D01124050E01D100020834050F01D1D3
S315000008F00001241D850F01D18000A41C002801DB06
S315000009004000641C002908D020252E1B0D46F5400A
S31500000910A14000D001212943084301061B1B000A00
S31500000920DB1D02D5002070BC7047DB051818801847
S315000009300029F8DA401C4900F5D170BC4008400097
S31500000940704710B5002B08DA0024401C614192184C
S315000009505B411A4301D14008400010BDF0B51FB4F9
S3150000096082B005460C0003D0084601F061F902E0AA
S3150000097001F05EF920300246009021462846FFF736
S315000009806BFF049B059A04460F4618431143084320
S3150000099014D0184610431BD0009840210A1A184656
S315000009A00599FFF769FF05460E46009A05990498D2
S315000009B0FFF752FF084305D0012004E020463946E0
S315000009C007B0F0BD0020C11705430E432C43374343
S315000009D000990E986305401A7905E40A00220C4333
S315000009E0FD0A0A3002D500200146E9E70105101983
S315000009F069410C9C0D9D00196941FFF7A2FFDFE7D5
S31500000A0070B54B005B0803430BD04B005C0D002612
S31500000A1033466542B341D417AD1AA34102DB002029
S31500000A20014670BD12053018514170BD4A000903D8
S31500000A300123090B1B0519430A4B10B5520D9A42A7
S31500000A4002DA0020014610BD064B34339A4203DC1D
S31500000A509A1AFFF711FF10BD034BD218FFF7FCFEE1
S31500000A6010BD0000FF030000CDFBFFFF064C012573
S31500000A70064E05E0E36807CC2B430C3C9847103440
S31500000A80B442F7D3FFF720FBD8460000F846000033
S31500000A90FEB500231A461B1A8A4103DB00200146D5
S31500000AA003B0F0BD4A000D0301212D0B0905520DBF
S31500000AB00D43D10702D100186D41521E5110FF316E
S31500000AC0FF310131002704463E4638460097019122
S31500000AD00246012100200905FFF7CEFEC319714128
S31500000AE0F818324684468E464A4161462846611ABF
S31500000AF0904104D36046241A954176461F46241930
S31500000B0000986D41401C00903428E1DDF91930460B
S31500000B107041091BA84103D20022D243134601E0CB
S31500000B200022134601980105381C7141FFF709FFA1
S31500000B30B6E7000070B50446002C03D0012C01D0A6
S31500000B40022C00D103E035210BA001F00FFE134863
S31500000B50006B02218843801C10490863002C03D0D7
S31500000B6020461821084300E0002005460C4828438B
S31500000B700C49486070BD00002E5C4C69627261725F
S31500000B806965735C7372635C6377333266303330E6
S31500000B905F666C6173682E63000000000000014010
S31500000BA000005A5A00200240C2690A43C261026824
S31500000BB00A43026002698A430261C2688A43C260CC
S31500000BC0426A8A434262826A8A438262C26A8A436C
S31500000BD0C262026B8A43026342688A43426070477C
S31500000BE04A68002A04D1C2690B681A43C26174E0DC
S31500000BF0C2690B689A43C26110234A681A40102AD8
S31500000C004ED102680B681A4302604A68112A07D15E
S31500000C1002690B681A430261C2680B689A43C26094
S31500000C204A68122A07D1C2680B681A43C260026971
S31500000C300B689A430261426A0B689A434262826A6F
S31500000C400B689A438262C26A0B689A43C262026B5D
S31500000C500B689A43026381238A681A40812A03D16A
S31500000C60426A0B681A43426282238A681A40822AC1
S31500000C7003D1826A0B681A43826284238A681A4007
S31500000C80842A03D1C26A0B681A43C26288238A681F
S31500000C901A40882A21D1026B0B681A4302631CE0B2
S31500000CA002680B689A4302604A68202A04D14268A7
S31500000CB00B689A43426003E042680B681A4342603D
S31500000CC0064BCA689A4204D182680B681A4382604E
S31500000CD003E082680B689A4382607047FFFF00005A
S31500000CE00246106D0840002801D001207047002000
S31500000CF0FCE7012A01D1C16500E08165704700006B
S31500000D0010B5032189020248FFF74EFF10BD00000F
S31500000D10000400481FB50E48006B202108430C490B
S31500000D200863032080020090212001900948039067
S31500000D3069460948FFF754FF0122D1020648FFF72A
S31500000D40D8FF012291020448FFF7D3FF1FBD000020
S31500000D5000000140FFFF0000000400487FB50024AA
S31500000D600120C002009011200190154803906946A9
S31500000D701448FFF735FF00251DE0002201218902F6
S31500000D801048FFF7B6FF022001F034FD0122910260
S31500000D900C48FFF7AEFF6006040E0121C9020948A0
S31500000DA0FFF79EFF002801D0601CC4B2012001F0AD
S31500000DB021FD681CC5B2082DDFDB204604B070BDDE
S31500000DC0FFFF0000000400481FB504460022012171
S31500000DD089021748FFF78DFF0120C00200902120ED
S31500000DE001901448039069461148FFF7F9FE002C5C
S31500000DF006D100220121C9020D48FFF77AFF04E05F
S31500000E000122D1020A48FFF774FF022001F0F2FC2A
S31500000E10012291020648FFF76CFF022001F0EAFC6E
S31500000E200022012189020248FFF763FF1FBD00006F
S31500000E3000040048FFFF00001FB50120C00200901B
S31500000E40212001901148039069461148FFF7C8FE1A
S31500000E500122D1020E48FFF74CFF012291020C48F5
S31500000E60FFF747FF042001F0C5FC00220121C9025B
S31500000E700748FFF73EFF042001F0BCFC00220121D9
S31500000E8089020348FFF735FF1FBD0000FFFF000082
S31500000E90000400481FB50120C002009021200190E7
S31500000EA01248039069461248FFF79AFE0022012174
S31500000EB089020F48FFF71DFF00220121C9020C48D5
S31500000EC0FFF717FF042001F095FC01229102084864
S31500000ED0FFF70FFF042001F08DFC0122D102044828
S31500000EE0FFF707FF042001F085FC1FBDFFFF000090
S31500000EF0000400481FB500240120C0020090112004
S31500000F0001901748039069461648FFF769FE0122CB
S31500000F10D1021448FFF7EDFE012001F06BFC01221F
S31500000F2091021048FFF7E5FE012001F063FC08E09E
S31500000F30601C84B2FA2C04DDFFF7ACFF012004B07C
S31500000F4010BD0121C9020748FFF7CAFE0028EFD1EC
S31500000F500022012189020348FFF7CBFE0020EEE7BD
S31500000F60FFFF0000000400487FB50446002501206D
S31500000F70C002009021200190174803906946174847
S31500000F80FFF72EFE0022012189021448FFF7B1FE69
S31500000F9000BF1EE080202040C2110121C9020F4877
S31500000FA0FFF7A7FE6006040E022001F023FC0122D3
S31500000FB091020A48FFF79DFE022001F01BFC002269
S31500000FC0012189020548FFF794FE022001F012FC78
S31500000FD06D1C082DDEDB7FBDFFFF0000000400480E
S31500000FE070B504460D460D482040002802D1002C5D
S31500000FF000D004E05121C90009A001F0B7FB002D83
S3150000100005D00F48006B20430D49086304E00C48E7
S31500001010006BA0430A49086370BD000088FDFFFF0E
S315000010202E5C4C69627261726965735C7372635C93
S3150000103063773332663033305F7263632E6300004A
S315000010400000014070B504460D460C4820400028BB
S3150000105002D1002C00D003E009490AA001F086FB6A
S31500001060002D05D00F48406B20430E49486304E02D
S315000010700C48406BA0430B49486370BD6DC0FFFF31
S31500001080B60200002E5C4C69627261726965735C1F
S315000010907372635C63773332663033305F726363D7
S315000010A02E6300000000014010B50446002C0DD050
S315000010B0202C0BD0402C09D0602C07D0802C05D0DA
S315000010C0A02C03D0C02C01D0E02C00D103E03321AA
S315000010D006A001F04BFB0D4800680D4908400D497C
S315000010E0401820430949086010BD00002E5C4C6979
S315000010F0627261726965735C7372635C63773332C3
S31500001100663033305F7263632E6300000000014077
S315000011101FFF000000005A5AFEB506460C4615464B
S315000011201F460020019047480090002E01D0402E17
S3150000113000D104E0FF216D3143A001F017FB4A48BE
S31500001140844203D3C000844200D804E0FF216E31FC
S315000011503DA001F00BFB002D05D0012D03D0022D83
S3150000116001D0032D00D104E0FF216F3136A001F03C
S31500001170FDFA002F01D0802F00D104E0FF2170314D
S3150000118031A001F0F3FA3948006B01214902084306
S3150000119036490863002E06D13548C0690321084345
S315000011A03349C86116E03248C069400840003049FA
S315000011B0C86108460068012108432D4908600846B1
S315000011C000694008400008610846C06801210843DC
S315000011D02749C8602748844201D1032003E02649F5
S315000011E02046FEF78DFFC0B2019022460023234819
S315000011F00121FEF79BFF0102304620221043019A8F
S31500001200920010432843384301431848C16140689F
S315000012101B4908431549486000BF1448C0690121AD
S31500001220C9040840884205D00098411E89B2009141
S315000012300028F2D10098002801D10120FEBD00202F
S31500001240FCE70000FFFF00002E5C4C6962726172D1
S315000012506965735C7372635C63773332663033300F
S315000012605F7263632E63000000093D0000000140C9
S31500001270001400480048E80100127A000050D6DC4D
S3150000128082015A5AF0B58DB006460F46144600251F
S3150000129000200C900B90464801460EC9C068099381
S315000012A0089207910A9014224149103102A8FEF7CC
S315000012B063FF40480190002E03D0012E01D0032E7B
S315000012C000D104E0FF21E9313BA001F04FFA42488A
S315000012D0874203D34148874200D804E0FF21EA3120
S315000012E035A001F043FA022C13D0032C11D0042CA4
S315000012F00FD0052C0DD0062C0BD0072C09D0082CAE
S3150000130007D0092C05D00A2C03D00B2C01D00C2CAD
S3150000131000D104E0FF21EB3127A001F027FA0025D8
S3150000132008E0A80007A90858B84201D90C9503E0BF
S31500001330681CC5B2042DF4D300BF384660430B9039
S31500001340002509E0A80002A909580B98814201D995
S315000013500B9503E0681CC5B2052DF3D300BF0B98AF
S315000013604002072109030843210108430C9989001B
S31500001370084330431A4988620846406819490843B9
S315000013801749486000BF1648806A0121C903084012
S31500001390884205D00198411E89B201910028F2D1F8
S315000013A00198002802D101200DB0F0BD0020FBE716
S315000013B024460000FFFF00002E5C4C6962726172D9
S315000013C06965735C7372635C63773332663033309E
S315000013D05F7263632E63000000093D0000366E01F4
S315000013E00000014004005A5A70B50446002C07D08C
S315000013F0012C05D0022C03D0032C01D0042C00D1E3
S3150000140003E00E490EA001F0B1F91548006880B25C
S3150000141014494018C008C00020431149086000F074
S3150000142023F8054600F08CF80D4800684007400F89
S31500001430A04201D0012070BD0020FCE7260200007A
S315000014402E5C4C69627261726965735C7372635C6F
S3150000145063773332663033305F7263632E63000026
S315000014600000014000005A5AF8B500250027002464
S315000014700026002000902D48006847077F0F2B4864
S3150000148080694004040F2948806A8007800F009015
S315000014902648806AC005C60E3B0000F0E0FB050446
S315000014A00C130E103400A000214A11582148FEF7F3
S315000014B027FE05462FE0204D2DE0204D2BE001258F
S315000014C0ED0328E00098002804D0012803D0032863
S315000014D00ED104E000BF18483546454311E0A00090
S315000014E0134A11581348FEF70BFE7043054608E0F1
S315000014F0A0000F4A11580F48FEF702FE704305463A
S3150000150000BF00BF07E0A000094A11580948FEF7CE
S31500001510F7FD054600BF00BF044800680006410FFE
S315000015202846C84005462846F8BD00000000014090
S31500001530E4450000006CDC020024F400208000007A
S3150000154001490860704700000C000020034800684D
S3150000155003490978401801490860704700000020D7
S3150000156008000020014802490860704700127A000E
S315000015700C00002000B5FFF7F5FF9321490209880A
S315000015804805400D09498969C90AC9020143074A44
S3150000159091619321490249888805800D1146096A9F
S315000015A0890A89020143116200BD00000000014062
S315000015B010B50421084800F089F800280BD0064829
S315000015C000F07EFA04462146034800F0D9FA0421C9
S315000015D0014800F003F810BD0038014070B504461C
S315000015E00D460F48844205D00E48844202D00E486C
S315000015F0844200D104E0FF2143310CA001F0B6F88B
S3150000160012482840002802D1002D00D004E0FF2116
S31500001610443106A001F0AAF8206AA843206270BDF2
S315000016200038014000440040004800402E5C4C69F0
S31500001630627261726965735C7372635C637733327D
S31500001640663033305F756172742E6300A1FF00004F
S3150000165070B504460D461248844205D011488442AE
S3150000166002D01148844200D104E0FF215D310FA071
S3150000167001F07CF87F2040022840002802D1002D8E
S3150000168000D004E0FF215E3108A001F06FF8E069A8
S315000016902840002801D0012070BD0020FCE7000092
S315000016A00038014000440040004800402E5C4C6970
S315000016B0627261726965735C7372635C63773332FD
S315000016C0663033305F756172742E630070B5044600
S315000016D00D461148844205D01048844202D0104875
S315000016E0844200D104E0FF212B310EA001F03EF828
S315000016F014482840002802D1002D00D004E0FF2124
S315000017002C3108A001F032F8E0692840002801D009
S31500001710012070BD0020FCE7003801400044004075
S31500001720004800402E5C4C69627261726965735CA8
S315000017307372635C63773332663033305F75617220
S31500001740742E6300A0FF000070B504460D461646D1
S315000017501848844205D01848844202D0174884426B
S3150000176000D104E0FF210B3115A000F0FFFF1C485B
S315000017702840002802D1002D00D004E0FF210C31C2
S315000017800FA000F0F3FF002E01D0012E00D104E0DF
S31500001790FF210D310AA000F0E9FF002E03D0A0685A
S315000017A02843A06004E0A068E94389B20840A0602D
S315000017B070BD000000380140004400400048004071
S315000017C02E5C4C69627261726965735C7372635CEC
S315000017D063773332663033305F756172742E63001F
S315000017E0A0FF0000F0B589B005460C460026002093
S315000017F008900027A248854205D0A248854202D01B
S31500001800A148854200D103E07221A0A000F0AEFFFE
S315000018102068002804D0A5492068884200D803E043
S3150000182073219AA000F0A2FFA08800280DD0A088FE
S3150000183001214902884208D0A0884900884204D084
S31500001840A08803214902884200D103E074218FA0B9
S3150000185000F08CFFE088002809D0E08801214902C9
S31500001860884204D0E08803210902884200D103E0BF
S31500001870752186A000F07AFFA068002804D08C4964
S31500001880A068884200D803E0762180A000F06EFFB1
S31500001890A089002804D0A089FF210131884200D107
S315000018A003E0772179A000F061FFE089002805D0E8
S315000018B0E089202802D0E089102800D103E07821B1
S315000018C072A000F053FF208A002808D0208A08283A
S315000018D005D0208A0C2802D0208A042800D103E0F3
S315000018E079216AA000F042FF608A72490840002808
S315000018F003D1608A002800D003E07A2163A000F0BB
S3150000190035FFA08A002808D0A08A082805D0A08A1A
S31500001910042802D0A08A0C2800D103E07B215BA01A
S3150000192000F024FFA088A1890843E1890843218AA1
S315000019300843618A084329685F4A114008432860C2
S31500001940E088A18A08436968C3229200914308434C
S315000019506860A08800282FD121680801FEF798FE4C
S315000019600790A068FEF794FE06900799FEF7BEFC66
S3150000197007463846FEF7B6FE86B23046FEF788FEC4
S3150000198039460190FEF771FC8321C9050290FEF7E6
S3150000199070FC0390FEF7D8FE0022484B0591049098
S315000019A0FEF7E2FC07910690FEF7B0FE80B20890C3
S315000019B0EE600898286160E0A0880121490288420B
S315000019C01BD12168C800FEF763FE0290A068FEF7EF
S315000019D05FFE01900299FEF789FC0390FEF7B4FEC4
S315000019E00022364B05910490FEF7BEFC0791069047
S315000019F0FEF78CFE86B2EE603FE0A08801218902E8
S31500001A0088421BD121688800FEF742FE0290A0683A
S31500001A10FEF73EFE01900299FEF768FC0390FEF782
S31500001A2093FE0022254B05910490FEF79DFC07913D
S31500001A300690FEF76BFE86B2EE601EE02068FEF7AB
S31500001A4027FE0290A068FEF723FE8721C9050090B5
S31500001A50FEF70FFC01900299FEF748FC0390FEF793
S31500001A6073FE0022154B05910490FEF77DFC07914D
S31500001A700690FEF74BFE86B2EE6009B0F0BD0000A0
S31500001A800038014000440040004800402E5C4C698C
S31500001A90627261726965735C7372635C6377333219
S31500001AA0663033305F756172742E63000024F40073
S31500001AB00090D003FCFF0000C0F8FFFF0000E03FED
S31500001AC010B504460848844205D00848844202D02E
S31500001AD00748844200D103E0612106A000F046FEDB
S31500001AE0606AC0B210BD00000038014000440040EA
S31500001AF0004800402E5C4C69627261726965735CD5
S31500001B007372635C63773332663033305F7561724C
S31500001B10742E630070B504460D460D48844205D008
S31500001B200C48844202D00C48844200D103E035219F
S31500001B300AA000F01BFE1148854200DC03E03621B6
S31500001B4006A000F013FEE805C00DA06270BD0000FF
S31500001B500038014000440040004800402E5C4C69BB
S31500001B60627261726965735C7372635C6377333248
S31500001B70663033305F756172742E6300FF010000BA
S31500001B8070B504460D460B48844205D00A48844287
S31500001B9002D00A48844200D103E0442108A000F0A4
S31500001BA0E5FDFF2D00DC03E0452105A000F0DEFD8C
S31500001BB0A56270BD00380140004400400048004066
S31500001BC02E5C4C69627261726965735C7372635CE8
S31500001BD063773332663033305F756172742E63001B
S31500001BE00FB410B503A9044B044A029800F0E8F9B3
S31500001BF010BC08BC04B018473128000010000020B3
S31500001C007CB51D4616460C0001D0611E00E0002181
S31500001C1001910090054B6A462946304600F0D0F9FE
S31500001C20002C02D0009A002111707CBDFD26000018
S31500001C302021020C01D010211046020A01D01046C4
S31500001C400839020901D01046091F820801D0104642
S31500001C50891E420801D0881E7047081A704730B4A2
S31500001C607446641E2578641CAB4204D3635D5B0036
S31500001C70E31830BC18471D46F8E700004900CA02C1
S31500001C800243100000D004204A0D01D00122104367
S31500001C90044A490D914201D102210843012800D18D
S31500001CA005207047FF07000010B5002819DB1A4A07
S31500001CB003231B02D21883089B00D2588307DC0E2D
S31500001CC0FF23A3409A438B071B0E8407E40EA34011
S31500001CD01A43114B032424021B198408A4001A5129
S31500001CE018E00E4A03071B0F083B9B089B00D258BF
S31500001CF08307DC0EFF23A3409A438B071B0E840742
S31500001D00E40EA3401A43054B0407240F083CA4081D
S31500001D10A4001A5110BD000000E100E01CED00E037
S31500001D20F8B504464F1EC8000838211815461E4649
S31500001D30086849683A4606239A4310D02A4633462D
S31500001D40FEF7C6FB3A46D200083AA3181A687F1E69
S31500001D505B68FEF709FB06223B469343EED1022F52
S31500001D6023D0042F11D0062F2FD12A463346FEF753
S31500001D70AFFBE36AA26AFEF7F7FA2A463346FEF796
S31500001D80A7FB636A226AFEF7EFFA2A463346FEF796
S31500001D909FFBE369A269FEF7E7FA2A463346FEF798
S31500001DA097FB63692269FEF7DFFA2A463346FEF798
S31500001DB08FFBE368A268FEF7D7FA2A463346FEF79A
S31500001DC087FB63682268FEF7CFFAF8BD002210B5DC
S31500001DD0134610460149FEF7E3FB10BD0000F03F35
S31500001DE010B5FEF7C1FA10BD002210B51346104615
S31500001DF01146FEF7D5FB10BD10B50721024A00209B
S31500001E000907FEF7FDFD10BD01030000034A10B5EA
S31500001E1000201107FEF7F4FD10BD000001FDFFFFD5
S31500001E2002E008C8121F08C1002AFAD1704770479D
S31500001E30002001E001C1121F002AFBD170470000FB
S31500001E40014908607047000014000020F0B51FB477
S31500001E5086B00998089A030D0021024314D0514810
S31500001E60514A1818504305141198012810981AD091
S31500001E70281A401C00264D4F4D49009601910490AA
S31500001E80002812DA444211E01198012449A30128DE
S31500001E9001D11098C1430698119A84600360C2600C
S31500001EA041600BB0F0BD4042E4E704462105002046
S31500001EB03F4A001C51410391029012E0E00707D00F
S31500001EC032463B4601990098FEF702FB01910090CD
S31500001ED032463B4610461946FEF7FAFA06460F46C4
S31500001EE06410002CEAD10498039B0028029A0999F1
S31500001EF0089806DAFEF7ECFA019B009AFEF7E8FA74
S31500001F0005E0FEF74DFB019B009AFEF749FB0446F0
S31500001F100E460022284BFEF73FFC03D80020C043A4
S31500001F20014607E00022254B20463146FEF71CFA03
S31500001F30FEF77CFD102409E0002C0ADB0A220023B0
S31500001F40FEF75AFC079B30321A55641E02460A43B6
S31500001F50F2D11122641C079B121B1C19119B012B29
S31500001F6003D0012308430ED10AE0084304D0112010
S31500001F7010900020119077E71098151A6D1E0BE04F
S31500001F801098824202DD00236D1C03E0824201DAD2
S31500001F9000236D1E002BEED0069811998260C16059
S31500001FA030C07EE701FCFFFF104D0000000014402A
S31500001FB00000F03F300000000000F0430000E03F6A
S31500001FC0FFB597B0064600251BE2252876D10024EA
S31500001FD02746F749049400E00443761C3278012032
S31500001FE0203A90400842F7D130782A280ED00222B3
S31500001FF0307801463039092916D804990A235943FD
S31500002000303940181443761C0490F1E7189802C83A
S3150000201004911890002904DA012040030443484241
S31500002020049002200443761C30782E2814D1042014
S3150000203004437078761C2A2809D11898761C80C823
S31500002040189009E00A214F43303FC719761C3078B3
S31500002050014630390929F5D930786C2810D006DCCC
S315000020604C281AD068280ED06A2817D104E07428A4
S3150000207013D07A2812D110E00120400504430CE069
S315000020800121090501E0032109050C43717881420C
S3150000209003D1012000052418761C761C30786628AA
S315000020A00BD013DC58287DD009DC00287BD04528CE
S315000020B0F6D04628F4D047281AD1A9E118E06328BB
S315000020C035D0642870D0652812D1A1E170286CD073
S315000020D008DC6728F1D069287DD06E280DD06F28DE
S315000020E006D1BCE073282ED0752873D0782859D035
S315000020F01A9A199990476D1C82E16002400F0228D6
S3150000210009D003280DD00428189801680DD00D6059
S31500002110001D189074E11898EA1701680D604A606E
S31500002120F6E7189801680D80F2E70D70F0E7189849
S315000021306A4601781172001D18900020507202A89C
S315000021400090012005E0189802C818900020009120
S31500002150C04361070ED5002101E00199491C019198
S31500002160B94213DA8142F8DB019A0099895C0029A9
S31500002170F3D10BE0002101E00199491C0191814254
S31500002180FADB019A0099895C0029F5D10199049836
S315000021901A9B471A21463846199A00F099FA4019AF
S315000021A0019903E051E030E115E050E0451807E001
S315000021B0009800990078491C00911A9A199990473D
S315000021C00198401E0190401CF2D1214638461A9BC8
S315000021D0199A12E137E00A2000210090019160026D
S315000021E0410F022907D0189A01CA1892C2179446BD
S315000021F0032908D00AE01898C01DC108C90005C9FE
S315000022001891944607E000B2C2179446042902D1F9
S3150000221040B2C1178C4600226146944506DA0A464A
S315000022200021404291418C462D2102E0210504D532
S315000022302B216A461173012103E0E10701D0202119
S31500002240F7E7029156E00A200AE0102008E0102085
S3150000225000900021042004430191082703E0082090
S315000022600021019100906002410F022907D0189ABF
S3150000227001CA189200229446032908D008E018984B
S31500002280C01DC108C90005C91891944603E080B273
S31500002290042900D1C0B20021029121072AD5317844
S315000022A00D91702906D0009A1021019B4A401A43CD
S315000022B005D00EE040216A461173012108E061460F
S315000022C0014306D030216A4611730D9951730221DC
S315000022D00291009A0821019B4A401A430AD161469D
S315000022E0014301D1610705D530216A4611730121E9
S315000022F07F1E02913178582904D02EA10E910DA986
S315000023000D910DE030A1F9E76146019B009AFEF7B9
S3150000231073FA0E9B8C469B5C0D9A521E0D9213709F
S3150000232061460143F0D10D9805A9081A20300190A5
S31500002330600703D501200004844300E001270198CB
S31500002340874201DD381A00E000200199009041180B
S31500002350029809180498401A0490E00306D421460E
S315000023601A9B199A049800F0B3F94519002706E05C
S3150000237003A81A9AC05D199990476D1C7F1C029894
S315000023808742F5DBE0030CD521461A9B199A04987F
S3150000239000F09EF9451904E01A9A302019999047E1
S315000023A06D1C0099481E00900029F5DC1FE0000016
S315000023B00928010030313233343536373839616215
S315000023C063646566000000003031323334353637D9
S315000023D03839414243444546000000000D980D99A6
S315000023E00078491C0D911A9A199990476D1C01990C
S315000023F0481E01900029F1DC4DE100F059F945191C
S31500002400761C3078002800D0DFE528461BB0F0BDEA
S31500002410600700D406271898C01DC108C90048687F
S315000024200A680831C30FDB071891190001D09CA177
S3150000243008E0210501D59BA104E0E10701D09AA19E
S3150000244000E09AA14300109130785B0865280CD013
S3150000245006DC452809D046281DD0472841D141E051
S31500002460662818D067283CD13CE00021112F01DBFB
S31500002470112000E0781C0191009008A911A8FFF72F
S31500002480E5FC139905910021119A15927F1C12986B
S315000024900197009150E00120C007039001200190B0
S315000024A008A9009711A8FFF7D1FC139A1499059271
S315000024B00022119B009212981593059A0192002909
S315000024C001D0104602E0791C40180190381A01D557
S315000024D0019804E04042401E0090781C0190C01B09
S315000024E0029043E0012F00DA01270021112F01DDC0
S315000024F0112000E038460191009008A911A8FFF7C5
S31500002500A5FC13990591119A002112981592009134
S31500002510019721070CD40599B94201DB019900E026
S315000025200191012904DD159A491E515C302906D016
S31500002530B84201DA011D05DA0121029115E001997F
S31500002540491EEDE7002805DC009941180091019924
S31500002550091A03E0019A411C914200DD019100999C
S31500002560401A401C02900120C0070390200706D4A1
S3150000257002990198814202DB0020C04302900020AC
S315000025806946C87707AF012103980337C907884210
S3150000259024D0022011902B201290039800280CDAE8
S315000025A0404203902D20129007E00A210398FDF780
S315000025B0A7FD30317F1E039039701199481E119086
S315000025C00029F2DC03980028EFD1791E12980870D2
S315000025D03078202108404530BF1E387006A8C01B41
S315000025E0C01D039010980078002800D001200199A2
S315000025F041180298C0170918039809180498401A38
S31500002600401E0490E00306D421461A9B199A0498AA
S3150000261000F05EF8451910980078002803D01A9A41
S31500002620199990476D1CE00324D521461A9B199AE7
S31500002630049800F04DF845191CE00098002807DBC7
S3150000264000990598884203DD1598405C199901E0C8
S31500002650199930201A9A904700986D1C401C0090DA
S315000026600298401E0290002804D11A9A2E20199929
S3150000267090476D1C0199481E01900029DDDC05E09C
S3150000268038781A9A7F1C199990476D1C0399481E31
S3150000269003900029F4DC21461A9B199A0498ACE6AB
S315000026A02D0000002B0000002000000000000000AC
S315000026B0F8B5044600251E461746880404D405E0EE
S315000026C039462020B0476D1C641EF9D52846F8BD52
S315000026D0FFB50446002581B01E46C80301D5302744
S315000026E000E02027880404D505E038460399B04762
S315000026F06D1C641EF9D5284605B0F0BD4A68002A4F
S3150000270006D00A68531C0B6010704868401E48606B
S315000027107047F8B504460F4615460020009020780D
S3150000272002236A463946E668B047002801D00120F0
S31500002730F8BD6946087800024978084328800020D9
S31500002740F6E7F8B504460F4615462804010E684616
S3150000275001704570207802236A4639462669B047DB
S31500002760002801D00120F8BD0020FCE770470000DA
S3150000277010B50023022216491846FEF7CDFC0020AC
S31500002780FEF792FC082212490020FEF77BFD01218C
S315000027900220FEF725FC0220FEF7CCF90220FEF708
S315000027A023FE0C48FEF7CCFE0B4801787D20C000C6
S315000027B0FDF7A6FC044621460648FDF7A1FC401E8F
S315000027C006494861002088610520086110BD0000A7
S315000027D000127A000090D0030800002000E000E01C
S315000027E010B504467D21C9006143084600F002F891
S315000027F010BD000030B5034626229C010B4DA96989
S3150000280011E00A4DA86988420DD0884202D20D1AFD
S31500002810AA1804E0054D6D692D1A6D18AA1801460F
S31500002820A24200D300E0ECE700BF30BD00E000E0CC
S3150000283070B504460D46E1B20548FFF76BF900BFD7
S3150000284001210348FEF704FF0028F9D0204670BD99
S315000028500038014010B5054800F0FAF90446002C8E
S3150000286001D0012010BD0020FCE700001800002068
S31500002870F8B5074615461E4638214948FDF795FC2A
S31500002880484847494860484888604848C8604848BA
S31500002890086148484861484888614848C8613946DF
S315000028A03F4800F063FF0446002C04D044A000F02B
S315000028B06DFB0120F8BD2A463346394801F074F80D
S315000028C00446002C04D046A000F060FB0120F1E78E
S315000028D0334800F029FA0446002C04D048A000F042
S315000028E055FB0120E6E702212D4800F047FF04468C
S315000028F0002C07D048A000F049FB294800F0A8F9B1
S315000029000120D7E70421264800F078FF0446002C72
S3150000291007D04AA000F03AFB214800F099F90120BF
S31500002920C8E704211E4801F049F80446002C07D0E8
S315000029304FA000F02BFB1A4800F08AF90120B9E7F6
S315000029406946174800F008F90446002C07D055A040
S3150000295000F01CFB124800F07BF90120AAE768464C
S3150000296001880F4800F088FF0446002C07D057A0C6
S3150000297000F00CFB0A4800F06BF901209AE70721EA
S31500002980074800F0ABFF0446002C07D058A000F023
S31500002990FDFA034800F05CF901208BE7002089E787
S315000029A018000020DB2F0000D12F0000E52F0000CB
S315000029B04B300000C52F00008D2F0000B130000005
S315000029C0696E613232363A207365742061646472CE
S315000029D02070696E206661696C65642E0A000000CD
S315000029E0696E613232363A20736574207265736996
S315000029F07374616E6365206661696C65642E0A0096
S31500002A00696E613232363A20696E69742066616990
S31500002A106C65642E0A000000696E613232363A2017
S31500002A207365742061766572616765206D6F646594
S31500002A30206661696C65642E0A000000696E613269
S31500002A4032363A207365742062757320766F6C7423
S31500002A5061676520636F6E76657273696F6E207449
S31500002A60696D65206661696C65642E0A0000000068
S31500002A70696E613232363A20736574207368756EFA
S31500002A807420766F6C7461676520636F6E7665720D
S31500002A9073696F6E2074696D65206661696C656423
S31500002AA02E0A0000696E613232363A2063616C6329
S31500002AB0756C6174652063616C6962726174696FBB
S31500002AC06E206661696C65642E0A0000696E61326B
S31500002AD032363A207365742063616C696272617480
S31500002AE0696F6E206661696C65642E0A00000000DD
S31500002AF0696E613232363A20736574206D6F646593
S31500002B00206661696C65642E0A000000FEB5054604
S31500002B100E4617462A4669460E4800F0D7FB04467D
S31500002B20002C01D00120FEBD324601A9094800F063
S31500002B3089FC0446002C01D00120F4E73A46694698
S31500002B40044800F047FD0446002C01D00120EAE7C6
S31500002B500020E8E718000020F0B587B004460F46CD
S31500002B60002C02D1022007B0F0BD3020005D012804
S31500002B7001D00320F7E7616A206A05225207274B36
S31500002B8005910490FDF708FE0ED8616A206A0522B9
S31500002B905207234B05910490FDF7EAFD04D821A0C6
S31500002BA0A16988470420DEE7254D264E0022264BE4
S31500002BB01046A90700F08EFF05910490616A206A0D
S31500002BC002460B460191009028463146FDF7E8FC87
S31500002BD003910290059B049AFDF7E2FCE162A06274
S31500002BE00022194B1046A90700F074FF02460B4657
S31500002BF00191009028463146FDF7D2FC02460B466D
S31500002C000391029028461149FDF7CAFC05910490EC
S31500002C10FDF77CFD38800020A5E70000F7C6B0BEB2
S31500002C20F7C6B03E696E613232363A207220636171
S31500002C306E2774206265207A65726F2E0A00000086
S31500002C40F168E388B5F8B43F00002E40B5F8743F4C
S31500002C5038B50446002C01D1022038BD3020005D75
S31500002C60012801D00320F8E76A4600212046FFF735
S31500002C7050FD0546002D04D011A0A1698847042007
S31500002C80EBE768460088C108C900009168460288DB
S31500002C9000212046FFF755FD0546002D04D011A062
S31500002CA0A16988470420D8E7A06880470546002D1B
S31500002CB004D016A0A16988470120CEE70020CCE702
S31500002CC0696E613232363A207265616420636F6ED6
S31500002CD066207265676973746572206661696C65E2
S31500002CE0642E0A00696E613232363A207772697450
S31500002CF06520636F6E6620726567697374657220FE
S31500002D006661696C65642E0A00000000696E6132B6
S31500002D1032363A20696963206465696E6974206693
S31500002D2061696C65642E0A0038B50446002C01D131
S31500002D30022038BDA069002801D10320F9E76068A8
S31500002D40002804D141A0A16988470320F1E7A068C3
S31500002D50002804D144A0A16988470320E9E7E06878
S31500002D60002804D148A0A16988470320E1E720692B
S31500002D70002804D14BA0A16988470320D9E76069E0
S31500002D80002804D14EA0A16988470320D1E7E06955
S31500002D90002804D151A0A16988470320C9E76068CB
S31500002DA08047002804D056A0A16988470120C0E7C3
S31500002DB06A46FE212046FFF7ACFC0546002D06D0EC
S31500002DC056A0A1698847A06880470420B1E76A46F3
S31500002DD000212046FFF79DFC0546002D06D058A091
S31500002DE0A1698847A06880470520A2E76846018850
S31500002DF00120C00301430091684602880021204655
S31500002E00FFF79FFC0546002D06D056A0A16988470E
S31500002E10A068804705208CE70A20616988476A46D2
S31500002E2000212046FFF775FC0546002D06D044A07C
S31500002E30A1698847A068804705207AE700213120EC
S31500002E400155012130200155002072E7696E61327B
S31500002E5032363A206969635F696E69742069732046
S31500002E606E756C6C2E0A0000696E613232363A203D
S31500002E706969635F6465696E6974206973206E753C
S31500002E806C6C2E0A00000000696E613232363A2000
S31500002E906969635F72656164206973206E756C6C25
S31500002EA02E0A0000696E613232363A206969635F24
S31500002EB07772697465206973206E756C6C2E0A00D2
S31500002EC0696E613232363A2064656C61795F6D7382
S31500002ED0206973206E756C6C2E0A0000696E613273
S31500002EE032363A20726563656976655F63616C6C3C
S31500002EF06261636B206973206E756C6C2E0A00002C
S31500002F00696E613232363A2069696320696E697486
S31500002F10206661696C65642E0A000000696E613284
S31500002F2032363A2072656164206D616E7566616342
S31500002F307475726572206661696C65642E0A00009C
S31500002F40696E613232363A207265616420636F6E53
S31500002F5066207265676973746572206661696C655F
S31500002F60642E0A00696E613232363A2077726974CD
S31500002F706520636F6E66207265676973746572207B
S31500002F806661696C65642E0A000000000FB400B526
S31500002F90C1B0FF21013101A8FDF707F943A8009050
S31500002FA0FF2101A8009B429AFEF72AFE002000900E
S31500002FB001A903A0FEF714FE41B008BC04B01847EF
S31500002FC02573000010B504462046FFF709FC10BD26
S31500002FD010B5FDF795FE002010BD10B5FDF79AFE61
S31500002FE0002010BDF8B507460E4615461C46FDF7EF
S31500002FF023FF3846FDF7B8FFFDF77CFF002803D016
S31500003000FDF748FF0120F8BD3046FDF7ADFFFDF79F
S3150000301071FF002803D0FDF73DFF0120F3E70EE026
S31500003020FDF79CFE2870012C03D10120FDF7CCFE94
S3150000303002E00020FDF7C8FE601E84B26D1C002C65
S31500003040EED1FDF727FF0020DDE7FFB581B00D4685
S3150000305016461F46FDF7F0FE0198FDF785FFFDF7C2
S3150000306049FF002804D0FDF715FF012005B0F0BD8B
S315000030702846FDF779FFFDF73DFF002803D0FDF751
S3150000308009FF0120F2E700240CE0305DFDF76CFF3C
S31500003090FDF730FF002803D0FDF7FCFE0120E5E731
S315000030A0601C84B2BC42F0DBFDF7F4FE0020DDE7D5
S315000030B010B5044620460B380300FEF7D0FD051474
S315000030C0100C080418000DA0FFF760FF13E016A00F
S315000030D0FFF75CFF0FE01FA0FFF758FF0BE027A0EC
S315000030E0FFF754FF07E02FA0FFF750FF03E035A0DE
S315000030F0FFF74CFF00BF00BF10BD0000696E6132D4
S3150000310032363A20697271207368756E7420766F54
S315000031106C74616765206F76657220766F6C74617A
S3150000312067652E0A00000000696E613232363A2069
S31500003130697271207368756E7420766F6C7461673E
S315000031406520756E64657220766F6C746167652E96
S315000031500A000000696E613232363A2069727120C7
S3150000316062757320766F6C74616765206F76657221
S3150000317020766F6C746167652E0A0000696E613295
S3150000318032363A206972712062757320766F6C74DC
S3150000319061676520756E64657220766F6C74616711
S315000031A0652E0A00696E613232363A2069727120E4
S315000031B0706F776572206F766572206C696D6974C1
S315000031C02E0A0000696E613232363A20756E6B6ED9
S315000031D06F776E20636F64652E0A000070B586B047
S315000031E00446002534E002AA03A904A8FFF78EFCD2
S315000031F00646002E04D0FFF72DFB012006B070BD59
S315000032002246691C14A0FFF7C1FE0498FDF79CFA3C
S3150000321002460B460191009014A0FFF7B7FE0398F3
S31500003220FDF792FA02460B460191009018A0FFF7AF
S31500003230ADFE0298FDF788FA02460B460191009012
S315000032401BA0FFF7A3FE7D20C000FFF7BBFE6D1C91
S31500003250A542C8D30020D1E7696E613232363A20E2
S3150000326025642F25642E0D0A00000000696E613268
S3150000327032363A2062757320766F6C74616765200A
S3150000328069732025302E33666D562E0D0A00000018
S31500003290696E613232363A2063757272656E7420D9
S315000032A069732025302E33666D412E0D0A0000000D
S315000032B0696E613232363A20706F776572206973B3
S315000032C02025302E33666D572E0D0A00F7B582B0D5
S315000032D004460F46002C02D1022005B0F0BD302076
S315000032E0005D012801D00320F7E701AA0621204648
S315000032F0FFF70FFA0546002D04D031A0A1698847D3
S315000033000120EAE76846808804210840002804D0A6
S3150000331034A0A16988470420DFE73120005D00283A
S3150000332035D0684680880821084000282BD17D26A4
S31500003330F60000901CE001AA06212046FFF7E9F9F5
S315000033400546002D04D01EA0A16988470120C4E7C8
S315000033506846808808210840002800D00BE001203C
S3150000336061698847701E86B20098401C80B2009042
S315000033700098B042DFDB00BF002E04D11FA0A16978
S3150000338088470520A9E700213120015500BF3A46AC
S3150000339002212046FFF7BDF90546002D04D01DA0E9
S315000033A0A1698847012098E73888FDF771F9064634
S315000033B02349FCF75EFF0499086000208DE70000B2
S315000033C0696E613232363A2072656164206D6173CE
S315000033D06B207265676973746572206661696C65D6
S315000033E0642E0A00696E613232363A206D61746865
S315000033F0206F766572666C6F772E0A00696E613291
S3150000340032363A20726561642074696D656F757431
S315000034102E0A0000696E613232363A2072656164A6
S315000034202062757320766F6C7461676520726567BC
S315000034306973746572206661696C65642E0A0000A2
S315000034400000A03FF7B588B00446002C02D1022048
S315000034500BB0F0BD3020005D012801D00320F7E756
S3150000346006AA06212046FFF754F90746002F04D086
S3150000347038A0A16988470120EAE76846008B042145
S315000034800840002804D03CA0A16988470420DFE753
S315000034903120005D002832D06846008B08210840A4
S315000034A0002828D17D25ED0000261AE006AA06216F
S315000034B02046FFF72EF90746002F04D025A0A16964
S315000034C088470120C4E76846008B08210840002889
S315000034D000D008E0012061698847681E85B2701C2B
S315000034E086B2AE42E2DB00BF002D04D128A0A1695E
S315000034F088470520ACE700213120015500BF07AA07
S3150000350004212046FFF705F90746002F04D026A020
S31500003510A169884701209BE76846818B099801804D
S3150000352000200999085EFDF7BBF801910090A56A95
S315000035302A46E36AFCF7CCFF0022254B0391029052
S31500003540FCF7C6FF05910490FDF73AF90A99086061
S3150000355000207DE7696E613232363A207265616419
S31500003560206D61736B20726567697374657220667E
S3150000357061696C65642E0A00696E613232363A20E2
S315000035806D617468206F766572666C6F772E0A00BF
S31500003590696E613232363A20726561642074696DF3
S315000035A0656F75742E0A0000696E613232363A20F4
S315000035B0726561642063757272656E7420726567E8
S315000035C06973746572206661696C65642E0A000011
S315000035D000408F40F7B58AB00446002C02D1022085
S315000035E00DB0F0BD3020005D012801D00320F7E7C3
S315000035F008AA06212046FFF78CF80746002F04D0BC
S3150000360039A0A16988470120EAE76846008C0421B1
S315000036100840002804D03DA0A16988470420DFE7C0
S315000036203120005D002832D06846008C0821084011
S31500003630002828D17D25ED0000261AE008AA0621DB
S315000036402046FFF766F80746002F04D026A0A1699A
S3150000365088470120C4E76846008C082108400028F6
S3150000366000D008E0012061698847681E85B2701C99
S3150000367086B2AE42E2DB00BF002D04D129A0A169CB
S3150000368088470520ACE700213120015500BF032102
S3150000369020460B9AFFF73DF80746002F04D027A0D7
S315000036A0A169884701209BE70B990888FDF70CF86C
S315000036B001910090A56A2A46E36AFCF709FF0022F9
S315000036C0284B03910290FCF703FF0022264B05913D
S315000036D00490FCF7FDFE07910690FDF771F80C9932
S315000036E0086000207CE70000696E613232363A20BD
S315000036F072656164206D61736B20726567697374AE
S315000037006572206661696C65642E0A00696E6132B5
S3150000371032363A206D617468206F766572666C6F1A
S31500003720772E0A00696E613232363A20726561641C
S315000037302074696D656F75742E0A0000696E6132BA
S3150000374032363A207265616420706F776572207236
S3150000375065676973746572206661696C65642E0AB3
S31500003760000000000000394000408F400246002A59
S3150000377001D10220704711700020FBE7F8B504461E
S315000037800E46002C01D10220F8BD3020005D012834
S3150000379001D00320F8E76A4600212046FEF7B9FF6C
S315000037A00546002D04D00CA0A16988470120EBE74F
S315000037B068460188072040028143009171026846ED
S315000037C00088014389B2009168460288002120469C
S315000037D0FEF7B7FFD8E70000696E613232363A204D
S315000037E07265616420636F6E6620726567697374C3
S315000037F06572206661696C65642E0A00F8B5044638
S315000038000E46002C01D10220F8BD3020005D0128B3
S3150000381001D00320F8E76A4600212046FEF779FF2B
S315000038200546002D04D00BA0A16988470120EBE7CF
S3150000383068460188FF20C13081430091B101684686
S315000038400088014300916846028800212046FEF761
S3150000385078FFD9E7696E613232363A207265616463
S3150000386020636F6E66207265676973746572206681
S3150000387061696C65642E0A0070B504460E46002C1C
S3150000388001D1022070BD3020005D012801D0032047
S31500003890F8E7324605212046FEF753FF0546002D80
S315000038A004D003A0A16988470120EBE70020E9E7DF
S315000038B0696E613232363A207772697465206361C7
S315000038C06C6962726174696F6E2072656769737480
S315000038D06572206661696C65642E0A00F8B5044657
S315000038E00D46002C01D10220F8BD3020005D0128D4
S315000038F001D00320F8E76A4600212046FEF709FFBB
S315000039000646002E04D015A0A16988470120EBE7E2
S3150000391068460088C108C9000091684601882943A5
S315000039200091028800212046FEF70BFF0646002E76
S3150000393004D013A0A16988470120D5E7012D03D043
S31500003940022D01D0032D03D101213120015502E0C2
S315000039500021312001550020C6E70000696E613262
S3150000396032363A207265616420636F6E6620726536
S31500003970676973746572206661696C65642E0A00F6
S31500003980696E613232363A20777269746520636FE8
S315000039906E66207265676973746572206661696C0C
S315000039A065642E0A000000000146002901D10220AC
S315000039B070474B620A620020FAE70000F8B5044639
S315000039C00E46002C01D10220F8BD3020005D0128F2
S315000039D001D00320F8E76A4600212046FEF799FE4B
S315000039E00546002D04D00BA0A16988470120EBE70E
S315000039F068460188382081430091F10068460088B6
S31500003A00014300916846028800212046FEF799FE90
S31500003A10DAE70000696E613232363A207265616417
S31500003A2020636F6E662072656769737465722066BF
S31500003A3061696C65642E0A001FB5FEF799FEE120E8
S31500003A40400200F069FD1948006B40210843174900
S31500003A500863481400902020019015480390694699
S31500003A601448FDF7BDF8144A144B8020FEF700FFFA
S31500003A701420FEF7B5FE18E0012251030D48FDF7AC
S31500003A8038F96420FEF7ACFE0A20FFF7A7FB0446D0
S31500003A9021460BA0FEF7A4F80022012149030548A0
S31500003AA0FDF727F96420FEF79BFEE5E700000140DD
S31500003AB0FFFF0000000800489A9999999999B93F23
S31500003AC0696E6132323620706F6C6C2025780D0A73
S31500003AD000000000F0B51FB496B084460C460246BE
S31500003AE0199D18980390490068006300490840082A
S31500003AF00193002A01D0012600E000269E19FE4B04
S31500003B00F6185B109E422BD36E00039F0296002F81
S31500003B1000D00127F719F84EF84BBE199E421FD365
S31500003B20039E0346F64F334309D03B469C4201D1E0
S31500003B30002A04D0019B002A05D0012604E00020BB
S31500003B4039461BB0F0BD00269E19EE4B9E4207D8A3
S31500003B50039F029E002F00D00127F6199E4207D927
S31500003B602B4660462146189AFEF73AF91BB0F0BD7F
S31500003B700023002C29DAE44EB04226DAE34EB042A6
S31500003B8001DB022321E0DE4EB0421EDBE04E070DD4
S31500003B90BE19142E09DD3427BF1B039EFE40019675
S31500003BA0BE40039FBE420BD00FE0039F002F0CD1F7
S31500003BB01427BF1B0646FE400196BE40864204D12E
S31500003BC0019BDE07F60F02239B1B0E46164318D1F8
S31500003BD0002D16DA002C03D0022B01D0012B06D0C3
S31500003BE00220FEF72DF9FEF7F1F81BB0F0BD02201A
S31500003BF0FEF726F9FEF7EAF80122D20751401BB07C
S31500003C00F0BD039E002E61D1BF4EB04220D1C14807
S31500003C10844201D1002A08D0B948814209DB002D2F
S31500003C2010DB189829461BB0F0BD0020B4491BB024
S31500003C30F0BD002D06DA01222946D2071898514018
S31500003C401BB0F0BDB4497944086849681BB0F0BDA3
S31500003C50AB4FB84225D1002D1FDA002904D0B1425E
S31500003C6012D1002A09D018E0002A72D1A649E20F23
S31500003C700020D20711431BB0F0BD0020E20F014621
S31500003C80D20711431BB0F0BDB14206DA234600202D
S31500003C903946FCF785FC1BB0F0BD104621461BB02B
S31500003CA0F0BDB14212DA0126B607B54203D123466A
S31500003CB010461946FEE3994EB54207D1261E05DB8E
S31500003CC01046314600F004FC1BB0F0BD67007F08CB
S31500003CD01646002A40D100290AD08B4A914229D1A2
S31500003CE0002C0EDD002D1CDB002011461BB0F0BDA4
S31500003CF0022B16D0002C14D0012B12D1002C14DB71
S31500003D000FE0002C28DA002D09DB012B03D0002060
S31500003D107D491BB0F0BD002081491BB0F0BD012BD1
S31500003D2003D0002001461BB0F0BD00200121C907C9
S31500003D301BB0F0BD724A91420ED1002C01DA002B65
S31500003D4017D0022B06D00020C043FCF7A9FC1BB0FD
S31500003D50F0BD90E20120F8E7E217521C94461A43A0
S31500003D6007D000220892664C62465B1E1A4307D0B3
S31500003D7009E00120FEF764F8FEF736F81BB0F0BD47
S31500003D800022644C0892674A90427DDD664B674A82
S31500003D9098421FDD914202DC002D05DB4DE05848BC
S31500003DA0814217DB002D48DD0220FEF749F8FEF7B9
S31500003DB023F805460E460022534B21460898FCF789
S31500003DC087FB084671004908C00FC0070143284613
S31500003DD01BB0F0BD914215DA002D2EDA0220FEF757
S31500003DE02FF8FEF709F805460E460022464B2146F7
S31500003DF00898FCF76DFB72005208C80FC007024313
S31500003E00114617E03E4B994223DD002D15DD0220B9
S31500003E10FEF716F8FDF7F0FF05460E4600223A4B70
S31500003E2021460898FCF754FB084671004908C00F64
S31500003E30C007014328461BB0F0BD0220FEF700F87C
S31500003E40FDF7E4FF49004908E20FD20711431BB012
S31500003E50F0BD002230463946FCF72BFB0122054611
S31500003E600E46D243FCF7CCFD314A324BFCF727FB1A
S31500003E702A463346FCF72CFB0022284BFCF71FFB97
S31500003E8007462A46334600E064E003911046194689
S31500003E90FCF71EFB3A46039BFCF71AFB0746032278
S31500003EA009915207244B28463146FCF711FB07912E
S31500003EB00C90224A204B38460999FCF709FB074625
S31500003EC001911F4A1F4B28463146FCF701FB3A4633
S31500003ED0019BFCF7EEFA07460B4602460991079945
S31500003EE00C98FCF741FA00250E462846079B0C9ACB
S31500003EF0FCF7DFFA3A4627E0FFFF1F00FFFF0F003F
S31500003F000000F03F0000E0FF0000F07F00004043AB
S31500003F1001FCFFFF0000F0BF860A00000000E03F42
S31500003F200000F0FF0000E0410000F043FFFFEF3F1C
S31500003F30555555555555D53F4715F73FFE822B65C7
S31500003F4044DF5DF80BAE543E099BFCF7B8FA024617
S31500003F500B4652E1012500202D05A94207DA35223C
S31500003F6030463946FCF74CFD06463420C0430A1558
S31500003F701218FE48101803900803FD49000B014370
S31500003F800F46FC49884201DC002003E0FA498842DA
S31500003F9002DA0120119005E0002011900398401CE0
S31500003FA07F1B039011980597C200F4480F9278443E
S31500003FB0801843680268394630460D930292FCF732
S31500003FC078FA07910C9030460D9B029A0599FCF7FA
S31500003FD0CBF902460B460020E549FCF7E1FA0991C8
S31500003FE00490079B0C9AFCF773FA1290002010902D
S31500003FF0E3480D46784400680E9001217810490781
S31500004000084311990D9B890440180121C9044718DA
S315000040103946029A0E98FCF74CFA3246059BFCF795
S315000040204EFA02460B4629461098FCF751FA064608
S3150000403002913B4629460E9A1098FCF749FA079BCF
S315000040400C9AFCF73CFA3246029BFCF732FA099BC3
S31500004050049AFCF73DFA0591129A0A902B461046EF
S315000040601946FCF735FA06460246C6480F460B4681
S3150000407006217844FDF754FE32463B4600910490F3
S3150000408010461946FCF724FA009B049AFCF720FA1E
S3150000409006460F462B461946129A1098FCF764F905
S315000040A0059B0A9AFCF714FA32463B46FCF75CF984
S315000040B0109A079104902B4610461946FCF708FA09
S315000040C0B14E0022334609910290FCF74DF9079B49
S315000040D0049AFCF749F90020074602463346009148
S315000040E0FCF7E7F9099B029AFCF7E3F9079B049AA8
S315000040F0FCF7E5F906460D913A462946009B1098CD
S31500004100FCF7E6F907910C902B463046129A0D996A
S31500004110FCF7DEF905460E463A46009B05990A98D5
S31500004120FCF7D6F933462A46FCF71EF902460B463B
S315000041300746099107990C98FCF716F900250E46D3
S315000041402846079B0C9AFCF7B4F93A46099BFCF7FC
S31500004150B6F907460722099152078C4B3146284685
S31500004160FCF7B6F907910090894A884B38460999B9
S31500004170FCF7AEF907460191864A874B3146284639
S31500004180FCF7A6F93A46019BFCF7EEF8834B7B4415
S315000041900F9A9B181A685B68FCF7E6F8029009917B
S315000041A00398FCF77DFA05910490099B029A0799FA
S315000041B00098FCF7D9F87A4B7B440F9A9B181A683B
S315000041C05B6817460393FCF7CFF8059B049AFCF748
S315000041D0CBF80E462846059B049AFCF76AF93A4640
S315000041E0039BFCF766F9079B009AFCF762F9099BAB
S315000041F0029AFCF764F902460B46199900200C90C6
S315000042000F461898FCF764F9029104903B460C9A05
S3150000421019991898FCF74DF92A463346FCF758F9D0
S31500004220029B049AFCF7A0F809910E902A463346A1
S3150000423039460C98FCF74CF906460F46099B0E9A30
S31500004240FCF792F8574A0D46914220DB5242AA18D3
S31500004250024310D132463B46FCF72BF904900391FA
S31500004260514A524B09990E98FCF77EF8039B049A23
S31500004270FCF792FA1ED20220FDF7E2FDFDF7BCFD27
S3150000428049004908E20FD20711431BB0F0BD6A008E
S31500004290474B52089A420DD3464AAA18024300D009
S315000042A0CBE532463B46FCF704F9099B0E9AFCF730
S315000042B073FAF5D96800002340082C490393020DD0
S315000042C03D4B5218984223DD01200005521CD04078
S315000042D042195000400D4018384979440968134680
S315000042E08C463749C1408B4312030121120B090545
S315000042F051181422101AC1400391002D01DA4842C8
S315000043000390624630463946FCF7D3F806460F4618
S3150000431032463B4609990E98FCF726F800252A46B0
S31500004320284B28460591FCF7D3F807910C90264AAE
S31500004330264B28460599FCF7CBF8009102903246A9
S315000043403B4628460599FCF7B4F8099B0E9AFCF7FC
S31500004350B6F81F4A1F4BFCF7BBF8009B029AFCF706
S3150000436003F807460B460246099135E001FCFFFFBC
S315000043700000F03F8E9803007AB60B009606000008
S31500004380D8060000020600000000084009C7EE3FFC
S31500004390FD033ADCF5015B14E02F3EBED6040000B7
S315000043A09C04000000009040FE822B654715973C58
S315000043B000CC904000346F3F0000E03FF203000065
S315000043C0FFFF0F00432EE63F396CA80C615C20BE50
S315000043D0EF39FAFE422EE63F07990C98FBF7C4FF29
S315000043E005460E46079B0C9AFCF763F83A46099B6E
S315000043F0FCF765F809912A4633460E901046194691
S31500004400FCF766F8074602462F480B46059105213C
S315000044107844FDF785FC3A46059BFCF759F82A4691
S315000044203346FCF74CF80746019128463146099B6E
S315000044300E9AFCF74DF8099B0E9AFBF795FF0123A0
S3150000444004910C9000229B0738460199FCF731F83D
S3150000445005910E903A4628463146019BFCF738F8FE
S31500004460059B0E9AFCF79CF8049B0C9AFCF721F826
S315000044702A463346FCF71DF80022144BFCF71FF8BA
S31500004480064603980D46000541190915002912DC58
S3150000449030462946039AFCF7B3FAFDF7EFFB0428EA
S315000044A001D1FDF7B3FC30462946039AFCF7A8FA7A
S315000044B0064601E004E029180B46324621460898D4
S315000044C0FCF706F81BB0F0BD940200000000F03FB8
S315000044D0F8B506460C46FCF7DBFA051E0F4600D07B
S315000044E00120014349000B484908411AC90F0DD064
S315000044F0002E01D0012100E000210C436100490893
S31500004500401AC00F02D10120FDF79AFC2846394611
S31500004510F8BD00000000F07F10B58AB00446012106
S315000045201020FCF75DFD01214802FCF78BFD0920F8
S31500004530C006406900090001801C0921C9064861BE
S3150000454008464069F021884320300921C9064861A0
S31500004550FF2001300690202007901E48099006A9EA
S315000045600920C006FCF73CFB012040020690112002
S31500004570079006A90920C006FCF732FB009400212B
S3150000458068468180C1801448029068468181C18155
S31500004590018281820321418269461048FDF722F992
S315000045A000211B20FDF780FB1B20002809DB00BF34
S315000045B000BFC206D20E01219140094A116000BF18
S315000045C000BF00BF012204210448FDF7BDF80AB070
S315000045D010BD0000FFFF00000090D003003801402E
S315000045E000E100E0060000000600000006000000F2
S315000045F006000000060000000600000001000000A2
S315000046000300000002000000040000000600000095
S31500004610080000000A0000000C0000000E00000068
S3150000462010000000808D5B00001BB700002D3101DB
S3150000463001366E0180A8120100366E010051250276
S31500004640006CDC0201A24A04000000000000F03FFA
S31500004650000000000000F83F00000000000000001D
S315000046600000004003B8E23F000000000000000028
S3150000467006D0CF43EBFD4C3E033333333333E33FB6
S31500004680FFAB6FDBB66DDB3F4D268F515555D53FE2
S3150000469001411DA96074D13F65DBC9934A86CD3FB0
S315000046A0EF4E454A287ECA3F3E5555555555C53F9E
S315000046B093BDBE166CC166BF2CDE25AF6A56113F90
S315000046C0F16BD2C541BDBBBED0A4BE726937663E92
S315000046D00000000000000000F84600000000002076
S315000046E018000000201E00001047000018000020DF
S315000046F038040000301E0000000000000400000026
S315000047000100000000127A00000000000000000016
S705000000C139
