S3150000000018040020D9000000E7000000E900000005
S3150000001000000000000000000000000000000000DA
S31500000020000000000000000000000000EB000000DF
S315000000300000000000000000ED000000610E00005E
S31500000040F1000000F1000000F1000000F1000000E6
S31500000050F1000000F1000000F1000000F1000000D6
S31500000060F1000000F1000000F1000000F1000000C6
S31500000070F1000000F1000000F1000000F1000000B6
S31500000080F1000000F1000000F1000000F1000000A6
S31500000090F1000000F1000000F1000000F100000096
S315000000A0F1000000F1000000F1000000C50E0000A4
S315000000B0F1000000F1000000F1000000F100000076
S315000000C00448854600F044FB00480047F11600004E
S315000000D0C046C046180400200649086885460648FA
S315000000E0804706480047FEE7FEE7FEE7FEE7FEE735
S315000000F0FEE7000000000000890E0000C1000000BD
S3150000010030B50B46014600202022012409E00D46A9
S31500000110D5409D4205D31D469540491B2546954031
S3150000012040191546521E002DF1DC30BDF8B50024ED
S315000001302546002904DA0E46012400214042B14139
S31500000140002B04DA1E46002352420125B34100F07B
S31500000150FBF98C4617461E46AC4203D000254042AA
S315000001608D41AC46002C02D0002657429E41614686
S315000001703A46334601B0F0BD03460B439B0703D016
S3150000018009E008C9121F08C0042AFAD203E00B7856
S315000001900370401C491C521EF9D27047F8B502463E
S315000001A04A40D40F42004B0052085B089A4202D2E2
S315000001B00246084611464A0023D0C30D4A00DDB266
S315000001C0120EAD1A202D35DA49020126490AF60526
S315000001D08A19002C00D0524220214F1B1146B940EB
S315000001E02A411018C20D9A4221D0002C17D0012D99
S315000001F008DCDA05801AD20F8019D207DBB200F0CC
S315000002000FFAF8BDDA05801A012340001B06C01854
S3150000021080185A428018CA0F1043490007E049085F
S31500000220C2071143DA05801A80194008801800F0C9
S31500000230EFF9F8BD61000122511A001BF7E7012210
S31500000240D2075140AAE70122D2075040A6E702464C
S3150000025070B54A40D30FDB0740002DD04A002AD0A4
S31500000260010E140E000212020919400A520A8418DD
S31500000270E50104465443000A120A2E045043A41909
S315000002804219200CC543AA18120C0125AD03521CB5
S31500000290521912047F39240400D0521C104301D491
S315000002A04000491EC2B20C06C0092018401C400876
S315000002B0802A02D003E0002070BD400840000029DB
S315000002C000DA0020184370BD70B502464A40D50FCB
S315000002D040004A00ED0740085208002814D0002AC2
S315000002E012D0C40DD30D41020120C0055202490AA5
S315000002F0520AE41A091812187D34914201D3641C7B
S3150000030000E04900002C01DA002070BD0023914274
S3150000031001D3891A0343400849000028F7D1002970
S315000003200AD0914202D10121C90705E0914201D2CA
S31500000330012101E00121C943E005C018401900F080
S3150000034067F970BDF0B507460846584087B0C00F3C
S31500000350049048000E46590040084908BC1A8841D6
S3150000036005D2384631461E4617460B460246580009
S31500000370400810434DD0300D039040055900400D04
S31500000380490D0590401A0290402873DA180301219E
S31500000390000B09050843019004980092002806D036
S315000003A01146019A4942002090410091019002981D
S315000003B040210A1A0199009800F0F6F805460C4605
S315000003C06B4607CB00F011F9C0197141039A0E0D67
S315000003D00023D71756401A467A40164344D0049A4B
S315000003E0002A2DD0029A012A039A15DC1205C01A9A
S315000003F0914101263605001C7141D20F059ED20798
S315000004000093019202962A46234600F04FF907B060
S31500000410F0BD38463146FAE71605234A0F46B218AC
S31500000420C01AB74101210905001C4F4100187F4140
S31500000430114618187941E20F10436D19644113E013
S31500000440E2076D0815436408C2071443039A0126A0
S315000004501205C01A91413605001C7141CE074008AD
S3150000046030434908C01851412A46234600F011F985
S31500000470CDE7FFE7049801224000C117121A0023B6
S315000004808B4104983146C417381AA141EEE730B4BF
S315000004900124E407634030BC54E730B40124E40788
S315000004A0614030BC4EE700000000E0FF10B50022BE
S315000004B09623114600F0B4F810BD41004002012217
S315000004C0400AD205090E80187F2901DA00207047FC
S315000004D0962903DC9622511AC840704796398840FF
S315000004E0704700004A0009030123090B1B05194345
S315000004F0094B10B5520D9A4201DA002010BD064B89
S3150000050034339A4203DC9A1A00F05EF810BD0349B0
S315000005105118884010BD0000FF030000CDFBFFFF0F
S31500000520C20FD207400040080BD0C10D0723DB01E4
S31500000530C91840020905400A1143C2084007114381
S315000005407047002001467047F0B51FB406460020EC
S3150000055082B005464024019100901BE00199224695
S315000005600F46304600F030F8049A059B801A9941F0
S3150000057010D310461946224600F016F8361A8F4157
S315000005800197224601200021009F00F00DF838183F
S315000005904D4100902046641E0028DFDC019B009838
S315000005A02946324607B0F0BD10B5202A04DB0146C5
S315000005B0203A9140002010BD914020239C1A03460A
S315000005C0E3401943904010BD10B5202A04DB0846CD
S315000005D0203AD040002110BD0B46D340D040202405
S315000005E0A21A91400843194610BD10B5202A06DB11
S315000005F0CB170846203A1041C1170B4306E00B46BD
S315000006001341D0402024A21A91400843194610BD38
S31500000610002904DA401C490001D140084000704717
S3150000062070B40024050C05D11024000402D1002961
S3150000063021D01124050E01D100020834050F01D185
S315000006400001241D850F01D18000A41C002801DBB8
S315000006504000641C002908D020252E1B0D46F540BD
S31500000660A14000D001212943084301061B1B000AB3
S31500000670DB1D02D5002070BC7047DB0518188018FA
S315000006800029F8DA401C4900F5D170BC400840004A
S31500000690704710B5002B08DA0024401C61419218FF
S315000006A05B411A4301D14008400010BDF0B51FB4AC
S315000006B082B005460C0003D0084600F025FF02E094
S315000006C000F022FF20300246009021462846FFF720
S315000006D06BFF049B059A04460F46184311430843D3
S315000006E014D0184610431BD0009840210A1A184609
S315000006F00599FFF769FF05460E46009A0599049885
S31500000700FFF752FF084305D0012004E02046394692
S3150000071007B0F0BD0020C11705430E432C433743F5
S3150000072000990E986305401A7905E40A00220C43E5
S31500000730FD0A0A3002D500200146E9E70105101935
S3150000074069410C9C0D9D00196941FFF7A2FFDFE787
S31500000750064C0125064E05E0E36807CC2B430C3C0E
S3150000076098471034B442F7D3FFF7AEFCA018000048
S31500000770C018000070B50446002C03D0012C01D02F
S31500000780022C00D103E035210BA000F03DFF1348F9
S31500000790006B02218843801C10490863002C03D09B
S315000007A020461821084300E0002005460C4828434F
S315000007B00C49486070BD00002E5C4C696272617223
S315000007C06965735C7372635C6377333266303330AA
S315000007D05F666C6173682E630000000000000140D4
S315000007E000005A5A002002404A68002A04D1C26911
S315000007F00B681A43C26174E0C2690B689A43C2610E
S3150000080010234A681A40102A4ED102680B681A4310
S3150000081002604A68112A07D102690B681A4302610D
S31500000820C2680B689A43C2604A68122A07D1C26836
S315000008300B681A43C26002690B689A430261426AF6
S315000008400B689A434262826A0B689A438262C26A62
S315000008500B689A43C262026B0B689A430263812358
S315000008608A681A40812A03D1426A0B681A43426297
S3150000087082238A681A40822A03D1826A0B681A4345
S31500000880826284238A681A40842A03D1C26A0B686A
S315000008901A43C26288238A681A40882A21D1026BC9
S315000008A00B681A4302631CE002680B689A430260F5
S315000008B04A68202A04D142680B689A43426003E0E2
S315000008C042680B681A434260064BCA689A4204D1D2
S315000008D082680B681A43826003E082680B689A4359
S315000008E082607047FFFF0000012A01D1C16500E068
S315000008F08165704770B504460D460D4820400028B6
S3150000090002D1002C00D004E05121C90009A000F05A
S315000009107BFE002D05D00F48006B20430D49086370
S3150000092004E00C48006BA0430A49086370BD000050
S3150000093088FDFFFF2E5C4C69627261726965735CAB
S315000009407372635C63773332663033305F7263632E
S315000009502E6300000000014070B504460D460C48A9
S315000009602040002802D1002C00D003E009490AA04B
S3150000097000F04AFE002D05D00F48406B20430E497B
S31500000980486304E00C48406BA0430B49486370BDC4
S315000009906DC0FFFFB60200002E5C4C696272617288
S315000009A06965735C7372635C6377333266303330C8
S315000009B05F7263632E6300000000014010B50446B9
S315000009C0002C0DD0202C0BD0402C09D0602C07D049
S315000009D0802C05D0A02C03D0C02C01D0E02C00D157
S315000009E003E0332106A000F00FFE0D4800680D4914
S315000009F008400D49401820430949086010BD000011
S31500000A002E5C4C69627261726965735C7372635CB9
S31500000A1063773332663033305F7263632E63000070
S31500000A20000001401FFF000000005A5AFEB50646AE
S31500000A300C4615461F460020019047480090002EA0
S31500000A4001D0402E00D104E0FF216D3143A000F01B
S31500000A50DBFD4A48844203D3C000844200D804E048
S31500000A60FF216E313DA000F0CFFD002D05D0012DF8
S31500000A7003D0022D01D0032D00D104E0FF216F31F8
S31500000A8036A000F0C1FD002F01D0802F00D104E078
S31500000A90FF21703131A000F0B7FD3948006B01210C
S31500000AA04902084336490863002E06D13548C06915
S31500000AB0032108433349C86116E03248C06940083B
S31500000AC040003049C86108460068012108432D49A5
S31500000AD00860084600694008400008610846C0688A
S31500000AE0012108432749C8602748844201D10320D1
S31500000AF003E026492046FFF703FBC0B201902246D9
S31500000B00002323480121FFF711FB01023046202272
S31500000B101043019A92001043284338430143184872
S31500000B20C16140681B4908431549486000BF144825
S31500000B30C0690121C9040840884205D00098411EB9
S31500000B4089B200910028F2D10098002801D1012035
S31500000B50FEBD0020FCE70000FFFF00002E5C4C6994
S31500000B60627261726965735C7372635C6377333258
S31500000B70663033305F7263632E63000000093D0008
S31500000B8000000140001400480048E80100127A0005
S31500000B900050D6DC82015A5AF0B58DB006460F4693
S31500000BA01446002500200C900B90464801460EC9BD
S31500000BB0C0680993089207910A901422414910319E
S31500000BC002A8FFF7D9FA40480190002E03D0012E63
S31500000BD001D0032E00D104E0FF21E9313BA000F053
S31500000BE013FD4248874203D34148874200D804E0B8
S31500000BF0FF21EA3135A000F007FD022C13D0032CAB
S31500000C0011D0042C0FD0052C0DD0062C0BD0072CA0
S31500000C1009D0082C07D0092C05D00A2C03D00B2CA0
S31500000C2001D00C2C00D104E0FF21EB3127A000F00D
S31500000C30EBFC002508E0A80007A90858B84201D92E
S31500000C400C9503E0681CC5B2042DF4D300BF3846EA
S31500000C5060430B90002509E0A80002A909580B98EB
S31500000C60814201D90B9503E0681CC5B2052DF3D36B
S31500000C7000BF0B98400207210903084321010843DE
S31500000C800C998900084330431A498862084640682F
S31500000C90194908431749486000BF1648806A012170
S31500000CA0C9030840884205D00198411E89B20191C6
S31500000CB00028F2D10198002802D101200DB0F0BD24
S31500000CC00020FBE77C180000FFFF00002E5C4C694B
S31500000CD0627261726965735C7372635C63773332E7
S31500000CE0663033305F7263632E63000000093D0097
S31500000CF000366E010000014004005A5A70B50446E1
S31500000D00002C07D0012C05D0022C03D0032C01D0D7
S31500000D10042C00D103E00E490EA000F075FC154826
S31500000D20006880B214494018C008C0002043114929
S31500000D30086000F023F8054600F08CF80D480068BE
S31500000D404007400FA04201D0012070BD0020FCE703
S31500000D50260200002E5C4C69627261726965735CE2
S31500000D607372635C63773332663033305F7263630A
S31500000D702E6300000000014000005A5AF8B5002515
S31500000D80002700240026002000902D480068470711
S31500000D907F0F2B4880694004040F2948806A80072A
S31500000DA0800F00902648806AC005C60E3B0000F002
S31500000DB0C2FB05040C130E103400A000214A115882
S31500000DC02148FFF79DF905462FE0204D2DE0204DE7
S31500000DD02BE00125ED0328E00098002804D0012827
S31500000DE003D003280ED104E000BF1848354645431A
S31500000DF011E0A000134A11581348FFF781F9704318
S31500000E00054608E0A0000F4A11580F48FFF778F989
S31500000E107043054600BF00BF07E0A000094A11580D
S31500000E200948FFF76DF9054600BF00BF0448006892
S31500000E300006410F2846C84005462846F8BD000072
S31500000E40000001403C180000006CDC020024F400A5
S31500000E502080000001490860704700000C00002057
S31500000E60034800680349097840180149086070473B
S31500000E700000002008000020014802490860704771
S31500000E8000127A000C00002000B5FFF7F5FF932151
S31500000E90490209884805400D09498969C90AC902F4
S31500000EA00143074A91619321490249888805800DCB
S31500000EB01146096A890A89020143116200BD0000D0
S31500000EC00000014010B50421084800F089F8002808
S31500000ED00BD0064800F07EFA04462146034800F08F
S31500000EE0D9FA0421014800F003F810BD003801408A
S31500000EF070B504460D460F48844205D00E4884421C
S31500000F0002D00E48844200D104E0FF2143310CA0F8
S31500000F1000F07AFB12482840002802D1002D00D0AC
S31500000F2004E0FF21443106A000F06EFB206AA843CE
S31500000F30206270BD00380140004400400048004077
S31500000F402E5C4C69627261726965735C7372635C74
S31500000F5063773332663033305F756172742E6300A7
S31500000F60A1FF000070B504460D461248844205D024
S31500000F701148844202D01148844200D104E0FF2186
S31500000F805D310FA000F040FB7F2040022840002882
S31500000F9002D1002D00D004E0FF215E3108A000F050
S31500000FA033FBE0692840002801D0012070BD0020F5
S31500000FB0FCE70000003801400044004000480040C3
S31500000FC02E5C4C69627261726965735C7372635CF4
S31500000FD063773332663033305F756172742E630027
S31500000FE070B504460D461148844205D01048844227
S31500000FF002D01048844200D104E0FF212B310EA01C
S3150000100000F002FB14482840002802D1002D00D031
S3150000101004E0FF212C3108A000F0F6FAE069284030
S31500001020002801D0012070BD0020FCE700380140F7
S3150000103000440040004800402E5C4C6962726172B8
S315000010406965735C7372635C637733326630333021
S315000010505F756172742E6300A0FF000070B50446D0
S315000010600D4616461848844205D01848844202D0D8
S315000010701748844200D104E0FF210B3115A000F08F
S31500001080C3FA1C482840002802D1002D00D004E0F5
S31500001090FF210C310FA000F0B7FA002E01D0012E6F
S315000010A000D104E0FF210D310AA000F0ADFA002EB8
S315000010B003D0A0682843A06004E0A068E94389B291
S315000010C00840A06070BD00000038014000440040A8
S315000010D0004800402E5C4C69627261726965735CFF
S315000010E07372635C63773332663033305F75617277
S315000010F0742E6300A0FF0000F0B589B005460C46CB
S315000011000026002008900027A248854205D0A24864
S31500001110854202D0A148854200D103E07221A0A0F9
S3150000112000F072FA2068002804D0A5492068884299
S3150000113000D803E073219AA000F066FAA088002880
S315000011400DD0A08801214902884208D0A088490014
S31500001150884204D0A08803214902884200D103E0D6
S3150000116074218FA000F050FAE088002809D0E088AA
S3150000117001214902884204D0E088032109028842FD
S3150000118000D103E0752186A000F03EFAA068002891
S3150000119004D08C49A068884200D803E0762180A05C
S315000011A000F032FAA089002804D0A089FF2101317D
S315000011B0884200D103E0772179A000F025FAE08982
S315000011C0002805D0E089202802D0E089102800D127
S315000011D003E0782172A000F017FA208A002808D0D0
S315000011E0208A082805D0208A0C2802D0208A0428C4
S315000011F000D103E079216AA000F006FA608A7249FC
S315000012000840002803D1608A002800D003E07A2134
S3150000121063A000F0F9F9A08A002808D0A08A08285F
S3150000122005D0A08A042802D0A08A0C2800D103E0A9
S315000012307B215BA000F0E8F9A088A1890843E18939
S315000012400843218A0843618A084329685F4A114096
S3150000125008432860E088A18A08436968C32292008F
S31500001260914308436860A08800282FD121680801AF
S31500001270FFF71CF90790A068FFF718F90690079981
S31500001280FFF722F807463846FFF717F986B23046C9
S31500001290FFF70CF939460190FEF7D5FF8321C90502
S315000012A00290FEF7D4FF0390FFF73AF90022484B6D
S315000012B005910490FFF746F807910690FFF712F99B
S315000012C080B20890EE600898286160E0A08801214D
S315000012D0490288421BD12168C800FFF7E7F802904F
S315000012E0A068FFF7E3F801900299FEF7EDFF03907F
S315000012F0FFF716F90022364B05910490FFF722F806
S3150000130007910690FFF7EEF886B2EE603FE0A08800
S315000013100121890288421BD121688800FFF7C6F89F
S315000013200290A068FFF7C2F801900299FEF7CCFF81
S315000013300390FFF7F5F80022254B05910490FFF77F
S3150000134001F807910690FFF7CDF886B2EE601EE031
S315000013502068FFF7ABF80290A068FFF7A7F887218F
S31500001360C9050090FEF773FF01900299FEF7ACFFE6
S315000013700390FFF7D5F80022154B05910490FEF770
S31500001380E1FF07910690FFF7ADF886B2EE6009B06F
S31500001390F0BD000000380140004400400048004015
S315000013A02E5C4C69627261726965735C7372635C10
S315000013B063773332663033305F756172742E630043
S315000013C00024F4000090D003FCFF0000C0F8FFFFEB
S315000013D00000E03F10B504460848844205D008489E
S315000013E0844202D00748844200D103E0612106A06E
S315000013F000F00AF9606AC0B210BD00000038014072
S3150000140000440040004800402E5C4C6962726172E4
S315000014106965735C7372635C63773332663033304D
S315000014205F756172742E630070B504460D460D48F3
S31500001430844205D00C48844202D00C48844200D134
S3150000144003E035210AA000F0DFF81148854200DCF0
S3150000145003E0362106A000F0D7F8E805C00DA0622B
S3150000146070BD0000003801400044004000480040C4
S315000014702E5C4C69627261726965735C7372635C3F
S3150000148063773332663033305F756172742E630072
S31500001490FF01000070B504460D460B48844205D096
S315000014A00A48844202D00A48844200D103E044211B
S315000014B008A000F0A9F8FF2D00DC03E0452105A0F7
S315000014C000F0A2F8A56270BD00380140004400405B
S315000014D0004800402E5C4C69627261726965735CFB
S315000014E07372635C63773332663033305F75617273
S315000014F0742E630010B5024A024900F076F810BD5A
S31500001500CD160000100000202021020C01D0102171
S315000015101046020A01D010460839020901D01046C9
S31500001520091F820801D01046891E420801D0881E74
S315000015307047081A704730B47446641E2578641CD8
S31500001540AB4204D3635D5B00E31830BC18471D460D
S31500001550F8E7000010B5002819DB1A4A03231B021E
S31500001560D21883089B00D2588307DC0EFF23A340C2
S315000015709A438B071B0E8407E40EA3401A43114BB4
S31500001580032424021B198408A4001A5118E00E4AE9
S3150000159003071B0F083B9B089B00D2588307DC0EF2
S315000015A0FF23A3409A438B071B0E8407E40EA34038
S315000015B01A43054B0407240F083CA408A4001A513B
S315000015C010BD000000E100E01CED00E002E008C8EC
S315000015D0121F08C1002AFAD170477047002001E0A7
S315000015E001C1121F002AFBD17047F8B516460F46F7
S315000015F00446002503E03946B047641C6D1C20787C
S315000016000028F8D12846F8BD7047000010B5002321
S31500001610022216491846FFF709FA0020FFF7CEF90D
S31500001620082212490020FFF7B7FA01210220FFF72E
S3150000163061F90220FFF79EF80220FFF75FFB0C48D6
S31500001640FFF708FC0B4801787D20C000FEF758FD27
S31500001650044621460648FEF753FD401E06494861EA
S31500001660002088610520086110BD000000127A0084
S315000016700090D0030800002000E000E010B504460A
S315000016807D21C9006143084600F002F810BD000044
S3150000169030B5034626229C010B4DA96911E00A4D7F
S315000016A0A86988420DD0884202D20D1AAA1804E011
S315000016B0054D6D692D1A6D18AA180146A24200D370
S315000016C000E0ECE700BF30BD00E000E070B5044686
S315000016D00D46E1B20548FFF7A7FE00BF012103480A
S315000016E0FFF740FC0028F9D0204670BD00380140C5
S315000016F01FB5FFF78BFFE120400200F039F81448D0
S31500001700006B4021084312490863481400902020CA
S3150000171001901048039069460F48FFF765F816E0F8
S31500001720012251030C48FFF7DFF80CA0FFF7E2FE99
S315000017306420FFF7A3FF0022012149030648FFF7B3
S31500001740D3F808A0FFF7D6FE6420FFF797FFE7E778
S3150000175000000140FFFF0000000800485B534554AD
S315000017605D0D0A005B52455345545D0D0A000000AD
S3150000177010B58AB0044601211020FFF7BBF80121FD
S315000017804802FFF7E9F80920C00640690009000190
S31500001790801C0921C906486108464069F021884332
S315000017A020300921C9064861FF200130069020201B
S315000017B007901E48099006A90920C006FFF714F8ED
S315000017C00120400206901120079006A90920C006B4
S315000017D0FFF70AF80094002168468180C18014480A
S315000017E0029068468181C181018281820321418202
S315000017F069461048FFF780FC00211B20FFF7AAFE70
S315000018001B20002809DB00BF00BFC206D20E012143
S315000018109140094A116000BF00BF00BF01220421A8
S315000018200448FFF71BFC0AB010BD0000FFFF0000D4
S315000018300090D0030038014000E100E006000000FF
S31500001840060000000600000006000000060000007A
S315000018500600000001000000030000000200000076
S315000018600400000006000000080000000A00000056
S315000018700C0000000E00000010000000808D5B00D0
S31500001880001BB700002D310101366E0180A8120140
S3150000189000366E0100512502006CDC0201A24A04EA
S315000018A0C01800000000002014000000CC15000045
S315000018B0D41800001400002004040000DC15000009
S315000018C000000000040000000100000000127A0081
S309000018D0000000000E
S705000000C139
